:020000040800F2
:1000000018080020890100089101000893010008E8
:100010009501000897010008990100080000000000
:100020000000000000000000000000009B0100082C
:100030009D010008000000009F010008A1010008C8
:10004000A3010008A3010008A3010008A301000800
:10005000A3010008A3010008A3010008A3010008F0
:10006000A3010008A3010008A3010008A3010008E0
:10007000A3010008A3010008A3010008A3010008D0
:10008000A3010008A3010008BD020008A3010008A5
:10009000E9280008A3010008A3010008A301000843
:1000A000A3010008A3010008A3010008A3010008A0
:1000B000A3010008A3010008B5240008A30100085B
:1000C000A3010008A3010008A3010008A301000880
:1000D000A301000895260008A301000829270008AD
:1000E000A3010008A3010008A301000800F002F822
:1000F00000F03AF80AA090E8000C82448344AAF188
:100100000107DA4501D100F02FF8AFF2090EBAE885
:100110000F0013F0010F18BFFB1A43F0010318473B
:10012000FC3600001C370000103A24BF78C878C1A4
:10013000FAD8520724BF30C830C144BF04680C60ED
:10014000704700000023002400250026103A28BF35
:1001500078C1FBD8520728BF30C148BF0B60704739
:100160001FB51FBD10B510BD00F06DF81146FFF7AB
:10017000F7FF02F0A3FE00F08BF803B4FFF7F2FFE5
:1001800003BC00F093F80000094880470948004785
:10019000FEE7FEE7FEE7FEE7FEE7FEE7FEE7FEE737
:1001A000FEE7FEE704480549054A064B7047000094
:1001B00055240008ED00000818020020180800204F
:1001C000180400201804002030B505460B462A46C6
:1001D00013F8014B12F8010B08B1A042F8D01CB182
:1001E000002802D06D1CF1E7284630BD0022CBB2BA
:1001F00010F8011B994200D1421E0029F8D1104687
:10020000704710B5431C02E010F8011B71B1810763
:10021000FAD14FF0013202C88C1A8C4314EAC21191
:10022000F9D0C01A0A0603D0C01E10BDC01A10BDF6
:100230000A0401D0801E10BD0902FCD0401E10BD72
:10024000704770477047754600F02CF8AE460500C1
:100250006946534620F00700854618B020B5FFF7E1
:10026000A1FFBDE820404FF000064FF000074FF01F
:1002700000084FF0000B21F00701AC46ACE8C009C4
:10028000ACE8C009ACE8C009ACE8C0098D467047CD
:1002900010B50446AFF300802046BDE81040FFF7DC
:1002A0006CBF000000487047B401002001491820CD
:1002B000ABBEFEE7260002007047000070B54FF4A9
:1002C00008710D4800F03CF8A8B10B4800F034F874
:1002D000064603F045FA054608480168284603F03B
:1002E0005DF9044603F01CFA054908704FF40871E3
:1002F000014800F007F870BD00240140980000207C
:100300009600002000220A12D3430360704721B1F7
:10031000826842F00102826003E0826822F00102FA
:1003200082607047014600208A6802F004020AB128
:10033000012000E0002070470146C86C80B2704781
:1003400070B502460020002300240B125568CEB27F
:1003500005EA060415681D4015B10CB1012000E046
:10036000002070BD014600208A6802F008020AB130
:10037000012000E00020704710B50023CBB21AB175
:1003800044681C43446002E044689C43446010BDE0
:1003900030B502460020002350680F4C20400D79F4
:1003A0000C6844EA05242043506090680B4C2040C0
:1003B000D1E902542C434D7944EA4504204390602E
:1003C000D06A20F470000C7C641EE4B2234340EA3F
:1003D0000350D06230BD0000FFFEF0FFFDF7F1FFDB
:1003E000F0B504460D4600200021092D11DDE0681E
:1003F000A5F10A0606EB4607072606FA07F1884329
:10040000A5F10A0606EB460603FA06F10843E0608A
:100410000CE0206905EB4507072606FA07F188433B
:1004200005EB450603FA06F108432061072A0FDAB7
:10043000606B561E06EB86071F2606FA07F18843F7
:10044000561E06EB860605FA06F10843606322E0B5
:100450000D2A0FDA206BD61F06EB86071F2606FA39
:1004600007F18843D61F06EB860605FA06F1084316
:10047000206310E0E06AA2F10D0606EB86071F2656
:1004800006FA07F18843A2F10D0606EB860605FA87
:1004900006F10843E062F0BD816841F00801816027
:1004A000704721B1826842F4A002826003E0826852
:1004B00022F4A00282607047816841F004018160EB
:1004C0007047000000B587B0002001F0A3FB0121B8
:1004D000480201F0CBFB00208DF81B008120ADF815
:1004E000180006A9204800F08DFD12208DF8140098
:1004F00000208DF8150001208DF816008DF81700EA
:1005000005A801F0DFFA002000908DF804008DF8B6
:1005100005004FF4602002900020039001208DF828
:10052000100069461148FFF733FF01224FF40871AC
:100530000E48FFF721FF01210C48FFF7E8FE0B48AA
:10054000FFF7AAFF00BF0948FFF70CFF0028FAD108
:100550000648FFF7B1FF00BF0448FFF7E3FE00289D
:10056000FAD107B000BD000000080140002401409E
:10057000B1F5007F3AD00FDC202928D006DC012914
:100580001CD004291DD0082940D11DE0402921D0CC
:10059000B1F5807F3AD126E0B1F5004F31D006DCCD
:1005A000B1F5806F25D0B1F5006F2FD124E0B1F502
:1005B000803F12D0B1F5003F28D111E0154A82608A
:1005C00025E00822C26022E01022C2601FE008225B
:1005D00002611CE01022026119E00822426016E06C
:1005E0001022426013E00422426010E004224260C4
:1005F0000DE0042242600AE000228261042242608F
:1006000005E0002282610422426000E000BF00BFDA
:10061000704700000101010010B504460B488442F8
:1006200009D10121480601F011FB00214FF00070B3
:1006300001F00CFB08E00121880601F007FB002116
:100640004FF0806001F002FB10BD0000006400402C
:1006500010B50021837A012202FA03F13D4A1268A3
:1006600042F001023B4B1A603A4A1C3212688A433C
:10067000384B1C331A60027BCAB9364A0C321268F6
:100680008A43344B0C331A604288C38842EA0343DE
:10069000304A4032847A42F834300288838842EA11
:1006A00003432C4A4032847A02EBC4025360027B3B
:1006B000012A19D1274A0C3212680A43254B0C3300
:1006C0001A604288038842EA0343224A4032847A0D
:1006D00042F83430C288838842EA03431D4A4032DC
:1006E000847A02EBC4025360C27A3AB9194A121DE5
:1006F00012688A43174B1B1D1A6006E0154A121D2B
:1007000012680A43134B1B1D1A60028932B9114A41
:10071000143212688A430F4B14331A600289012A7B
:1007200006D10C4A143212680A430A4B14331A6079
:10073000427B012A06D1074A1C3212680A43054B44
:100740001C331A60034A126822F00102014B1A603E
:1007500010BD00000066004070B504460D4600263E
:1007600060692840002871D0B5F5807F5CD010DC2E
:10077000082D35D006DC012D20D0022D24D0042DEB
:1007800072D127E0102D31D0202D35D0402D6BD1E6
:1007900038E0B5F5004F60D009DCB5F5007F49D0F1
:1007A000B5F5806F4CD0B5F5006F5DD14FE0B5F574
:1007B000803F2DD0B5F5003F56D12FE0A0682D49E0
:1007C00000F039FA064651E0E068032100F033FA00
:1007D00006464BE0E068082100F02DFA064645E0A9
:1007E000E068102100F027FA06463FE02069032167
:1007F00000F021FA064639E02069082100F01BFAD2
:10080000064633E02069102100F015FA06462DE077
:100810006068082100F00FFA064627E060681021A2
:1008200000F009FA064621E0A069012100F003FA70
:1008300006461BE0A069022100F0FDF9064615E01E
:10084000A069042100F0F7F906460FE00FE0A06967
:10085000702100F0F0F9064608E06068042100F01D
:10086000EAF9064602E0FFE7002600BF00E00026A6
:10087000304670BD010101001AB143690B43436169
:1008800002E043698B434361704730B50246002064
:100890000023146824F002041460146844F0010476
:1008A000146000E05B1C546804F001041CB94FF6AE
:1008B000FF74A342F6D1546804F001040CB900207F
:1008C0006CE08C79012C04D1146844F0800414602D
:1008D00003E0146824F080041460CC79012C04D166
:1008E000146844F04004146003E0146824F04004E9
:1008F00014600C7A012C04D1146844F020041460B4
:1009000003E0146824F0200414604C7A012C04D114
:10091000146844F01004146003E0146824F0100418
:1009200014608C7A012C04D1146844F0080414601B
:1009300003E0146824F008041460CC7A012C04D17C
:10094000146844F00404146003E0146824F0040400
:1009500014608C78A407CD7844EA05640D7944EAE4
:1009600005444D7944EA05540D886D1E2C43D4612D
:10097000146824F001041460002300E05B1C546838
:1009800004F001041CB14FF6FF74A342F6D1546881
:1009900004F001040CB1002000E0012030BD10B5CE
:1009A00000F5D87303EB01131B6803F00403137203
:1009B000137A53B900F5D87303EB01131B6840F2A7
:1009C000FF7404EA5353136009E000F5D87303EB96
:1009D00001131B686FF0604404EAD303536000F511
:1009E000D87303EB01131B6803F00203537200F585
:1009F000D87303EB01135B6803F00F03937200F5E8
:100A0000D87303EB01135B681B0AD37400F5D8732A
:100A100003EB01139B68D37200F5D87303EB01134A
:100A20009B681C0A147300F5D87303EB01139B68D1
:100A30001C0C547300F5D87303EB01139B681B0E59
:100A4000937300F5D87303EB0113DB68D37300F5E0
:100A5000D87303EB0113DB681C0A147400F5D87318
:100A600003EB0113DB681C0C547400F5D87303EB23
:100A70000113DB681B0E937421B9C36843F0200394
:100A8000C36003E0036943F02003036110BD00006D
:100A90002DE9F04F85B004460D4616461F46DDE9A8
:100AA00010ABDDE90E890094002001908DF808005C
:100AB0008DF809008DF80A508DF80B608DF80C70D8
:100AC0008DF80D808DF80E908DF80FA08DF810B078
:100AD00012988DF8110013988DF81200694603489A
:100AE00000F016F805B0BDE8F08F0000006400408B
:100AF00000218171C171017241728172C172817074
:100B0000C1700321017102214171012101807047EF
:100B100010B502460020936803F08063B3F1806F44
:100B200000D110E0936803F00063B3F1006F01D1CE
:100B3000012008E0936803F08053B3F1805F01D196
:100B4000022000E00420042874D002F5C07303EBF7
:100B500000131B6803F0010402F5C07303EB0013DC
:100B60001C600B7A7BB94B7A0C8843EA445302F53C
:100B7000C07404EB00142468234302F5C07404EB32
:100B80000014236010E00B7A4C6843EAC4034C7AEB
:100B9000234302F5C07404EB00142468234302F5D8
:100BA000C07404EB001423608B7A03F00F038B7284
:100BB00002F5C07303EB00135B6823F00F0402F52A
:100BC000C07303EB00135C6002F5C07303EB00130A
:100BD0005B688C7A234302F5C07404EB00146360F5
:100BE0008B7B1C064B7B44EA03440B7B44EA0323C8
:100BF000CC7A234302F5C07404EB0014A3608B7C11
:100C00001C064B7C44EA03440B7C44EA0323CC7B64
:100C1000234302F5C07404EB0014E36002F5C073D3
:100C200003EB00131B6843F0010402F5C07303EBF0
:100C300000131C6010BD0246002002EA01030BB144
:100C4000012000E00020704710B586B004466846D9
:100C500001F0ACF842F6EC610198B0FBF1F06043B2
:100C6000059002E00598401E059005980028F9D1EE
:100C700006B010BD0149086070470000140401402F
:100C8000002006490860091D0860091D0860091D4B
:100C900008600348014914310860704700040140AE
:100CA000FFFF0F00002123498279002A3AD00A462B
:100CB000126803689A430B461A600A1D126803689B
:100CC0009A430B1D1A60027911440A6803681A439B
:100CD0000A60184A0832126803689A43154B0833B1
:100CE0001A601A1D126803689A43124B0C331A607B
:100CF0004279102A0ED11A1F126803681A430D4B4D
:100D000008331A601A1D126803681A43094B0C3322
:100D10001A600DE00749427911440A6803681A43D2
:100D20000A6005E0027911440A6803689A430A6080
:100D3000704700000004014010B5FFF7C3FB00201E
:100D4000804908700423012200217F48FFF748FBF7
:100D500001217D48FFF7DBFA01217B48FFF7A1FB6A
:100D6000C820FFF771FF77480078784909788842F2
:100D70007EDB0020764908701021764800F018FAD2
:100D80006420FFF761FF0221724800F011FA4FF46E
:100D90009670FFF759FF4FF49670FFF755FF4FF429
:100DA0009670FFF751FF4FF49670FFF74DFF4FF429
:100DB0009670FFF749FF4FF49670FFF745FF4FF429
:100DC0009670FFF741FF4FF49670FFF73DFF4FF429
:100DD0009670FFF739FF4FF49670FFF735FF00204C
:100DE0005D4908705D480078012873D15C4800783F
:100DF00006286FD100205B49087072B6042155485F
:100E000000F0D6F94FF4FA60FFF71EFF08215148B1
:100E100000F0CEF93220FFF717FF02214D4800F015
:100E2000C5F940F6AC50FFF70FFF0821494800F024
:100E3000BDF96420FFF708FF0221464800F0B8F929
:100E400041F65830FFF700FF62B6C820FFF7FCFEFE
:100E5000C820FFF7F9FEC820FFF7F6FEC820FFF70D
:100E6000F3FEC820FFF7F0FEC820FFF7EDFE00E01C
:100E700049E0C820FFF7E8FEC820FFF7E5FE394843
:100E80000078132808D1002037490870012037491D
:100E900008703749087054E032480078102850DC58
:100EA00002212C4800F082F910212A4800F07EF936
:100EB0000421284800F07AF900202C49087001200C
:100EC0002949087000202449087002202849087028
:100ED00037E0FFE702211F4800F068F910211D48A4
:100EE00000F064F904211B4800F060F900201F495C
:100EF000087001201C490870002017490870032061
:100F00001B4908701DE00F48007810490978884295
:100F100017DA02210F4800F049F910210D4800F0BE
:100F200045F904210B4800F041F900200F490870F1
:100F300001200D49087000200749087004200C4961
:100F4000087010BD9600002000240140970000208A
:100F5000C100002000080140C3000020C50000209F
:100F6000CA000020D0000020C4000020BD000020E6
:100F7000C000002010B504210E4800F017F96420CD
:100F8000FFF762FE02210B4800F010F96420FFF722
:100F90005BFE1021074800F009F96420FFF754FEBA
:100FA0000020054908700520044908700120044903
:100FB000087010BD00080140BD000020C0000020E6
:100FC000C400002030B500228B071C0F0F2303FA4A
:100FD00004F20B4B8C1053F824309343084C8D10C3
:100FE00044F8253023468C1053F824308C07240F06
:100FF00000FA04F42343024C8D1044F8253030BD30
:10100000080001402DE9F04102460025002600209D
:1010100000230024002791F803C00CF00F0591F87D
:1010200003C00CF0100CBCF1000F03D091F802C00B
:101030004CEA050591F800C0BCF1000F31D01468EE
:1010400000202BE04FF0010C0CFA00F3B1F800C0C7
:101050000CEA03069E4220D183004FF00F0C0CFADD
:1010600003F7BC4305FA03FC4CEA040491F803C0FF
:10107000BCF1280F06D14FF0010C0CFA00FCC2F8AD
:1010800014C00AE091F803C0BCF1480F05D14FF03D
:10109000010C0CFA00FCC2F810C0401C0828D1D387
:1010A0001460B1F800C0BCF1FF0F34DD54680020BB
:1010B0002EE000F1080C4FF0010808FA0CF3B1F82B
:1010C00000C00CEA03069E4221D183004FF00F0CB2
:1010D0000CFA03F7BC4305FA03FC4CEA040491F84C
:1010E00003C0BCF1280F05D100F1080C08FA0CF878
:1010F000C2F8148091F803C0BCF1480F07D100F189
:10110000080C4FF0010808FA0CF8C2F81080401CD7
:101110000828CED35460BDE8F0810000F0B50A463F
:10112000002300240021002500F00046B6F1004F06
:1011300002D11D4EF16901E01B4E7168C0F30345F9
:1011400083B200F44016B6F5401F08D121F070615B
:10115000154E766826F07066134F7E6012E000F43C
:101160008016B6F5801F06D1032606FA05F4A143C2
:1011700041F0706106E0460D360103FA06F6B14310
:1011800041F0706122B1460D360103FA06F6314393
:1011900000F00046B6F1004F02D1034EF16101E0CC
:1011A000014E7160F0BD00000000014041617047D8
:1011B0000161704770B55AA001F0BCFA9620FFF7A4
:1011C00043FD58A001F0B6FA4FF49670FFF73CFDCE
:1011D000102001F0C5FA5748FFF713F805465648A6
:1011E000FFF70FF805445548FFF70BF8054454483E
:1011F000FFF707F828440C30C4B2204601F0B0FADB
:10120000002001F0ADFA4B48FEF7FBFFC4B22046C8
:1012100001F0A6FA474801F08DFA032001F0A0FA88
:10122000C22001F09DFA002001F09AFA3C2001F062
:1012300097FA002001F094FA3F48FEF7E2FFC4B2AB
:10124000204601F08DFA3C4801F074FA002001F0CC
:1012500087FA3A48FEF7D5FFC4B2204601F080FA7B
:10126000364801F067FA002001F07AFA3448FEF7B8
:10127000C8FFC4B2204601F073FA314801F05AFAAF
:1012800030A133A000F0CFF834A000F062F9364866
:1012900090F9001035A000F0ADF8364890F9001034
:1012A00035A000F0A7F83648017836A000F0E2F843
:1012B0003648017836A000F09DF83748016837A01D
:1012C00000F098F83748017837A000F093F83848D4
:1012D000016838A000F08EF838480078012804D161
:1012E00037A139A000F09FF806E03448007818B91B
:1012F00038A135A000F097F824480078062804D1DA
:1013000036A137A000F08FF803E038A134A000F038
:101310008AF81A2001F024FA01203549087070BDBE
:101320000D0D00000D41542B43495053454E440DC3
:10133000000000005900002068000020400000204C
:101340004A000020436F6E6E6563746564000000A0
:1013500043352F73746174757300000043352F6338
:101360006F6D616E640000009500002043352F64AE
:10137000733000009400002043352F647332000066
:101380009600002043352F7662617400CA00002069
:1013900043352F5600000000B800002043352F438E
:1013A00000000000C000002043352F530000000063
:1013B000B400002043352F4346000000BD0000204C
:1013C000737461727425000043352F656E67696E12
:1013D0006500000073746F70250000006F6E0000E0
:1013E00043352F6E65757472616C00006F66660020
:1013F0003F000020FEB505460C46002C09DA60428D
:10140000694602F0B3F806463146284600F078F8FF
:1014100008E06946204602F0A9F80646314628460B
:1014200000F001F8FEBD2DE9F04105460C463020E4
:1014300001F096F92846FEF7E4FE07462046FEF73F
:10144000E0FE3844801CC6B2304601F089F9002025
:1014500001F086F92846FEF7D4FEC6B2304601F008
:101460007FF9284601F066F9204601F063F9BDE8EE
:10147000F08100002DE9FE4305460C46302001F0C6
:101480006FF92846FEF7BDFE81460A20B4FBF0F84E
:101490006946404602F06AF80746FEF7B2FE484445
:1014A000001DC6B2304601F05BF9002001F058F98A
:1014B0002846FEF7A6FEC6B2304601F051F928468E
:1014C00001F038F90A20B4FBF0F76946384602F01B
:1014D0004DF8064601F02EF908A001F02BF90A207C
:1014E000B4FBF0F100FB11476946384602F03EF8C4
:1014F000064601F01FF9BDE8FE8300002E00000043
:101500002DE9F04105460C46302001F029F9284626
:10151000FEF777FE07462046FEF773FE3844C01CF0
:10152000C6B2304601F01CF9002001F019F9284636
:10153000FEF767FEC6B2304601F012F9284601F008
:10154000F9F82D2001F00CF9204601F0F3F8BDE880
:10155000F08170B50446822001F002F92046FEF7C2
:1015600050FE401DC5B2284601F0FAF8002001F0F7
:10157000F7F8012001F0F4F8002001F0F1F820461E
:10158000FEF73FFEC5B2284601F0EAF8204601F01A
:10159000D1F8002001F0E4F870BD000010B5DDA125
:1015A000DE48FEF711FE68B1DDA001F0C3F8FA20B5
:1015B000FFF74AFBDBA001F0BDF80020E14908700D
:1015C000E1490870E1A1D548FEF7FEFD10B1012008
:1015D000DD490870E2A1D148FEF7F6FDB0B1DA4866
:1015E0000078012812D1CEA001F0A4F84FF4967033
:1015F000FFF72AFBDBA001F09DF8E04801F09AF824
:10160000DFA001F097F80020CE490870DB49C348FD
:10161000FEF7DAFD10B10220CB490870D0A1BF4817
:10162000FEF7D2FDA8B1C8480078022811D1BCA0AD
:1016300001F080F84FF49670FFF706FBD1A001F09F
:1016400079F83A20D34908700020BF490870BD4995
:101650000870D1A1B148FEF7B7FDD8B1B0A001F034
:1016600069F84FF49670FFF7EFFACEA001F062F838
:10167000D14801F05FF8CFA001F05CF8CF4801F04D
:1016800059F8AFA001F056F82D20C249087000208B
:10169000AC490870CAA1A148FEF796FDB8B1A0A058
:1016A00001F048F8FA20FFF7CFFAC8480068401C5C
:1016B000C6490860C6A001F03DF84FF47A70FFF704
:1016C000C3FA2820B349087000209E490870C4A1BD
:1016D0009248FEF779FDB8B191A001F02BF8FA20FD
:1016E000FFF7B2FAC0480068401CBF490860B8A0C4
:1016F00001F020F84FF47A70FFF7A6FA2820A549E8
:10170000087000208F490870B8A18448FEF75CFD7E
:10171000E0B1AE480068401CAC490860084600686B
:10172000052813D1002008607DA001F003F8FA20FD
:10173000FFF78AFAA6A000F0FDFF4FF47A70FFF7DA
:1017400083FA0020934908707E490870AAA1734863
:10175000FEF73AFD50B172A000F0ECFFFA20FFF75F
:1017600073FAFFF727FD1E208A490870A5A16B4870
:10177000FEF72AFD002856D069A000F0DBFFFA2012
:10178000FFF762FA01206F490870A0A000F0D2FFB5
:10179000C820FFF759FAA14890F90010A0A0FFF760
:1017A00029FEA14890F90010A0A0FFF723FEA14850
:1017B0000178A1A0FFF75EFEA1480178A1A0FFF784
:1017C00019FEA2480178A2A0FFF714FE864801681E
:1017D000A1A0FFF70FFE7D480168A1A0FFF70AFE58
:1017E000A1480078012804D1A0A1A2A0FFF71BFE08
:1017F00006E09D48007818B9A1A19EA0FFF713FE4E
:101800008F480078062804D19FA1A0A0FFF70BFE07
:1018100003E0A1A19DA0FFF706FE1A2000F0A0FFA3
:1018200000205C4908709DA13C48FEF7CDFC38B112
:101830008D48007808B9FFF77FFA3A2055490870BB
:1018400099A13648FEF7C0FC28B1874800780128E6
:1018500001D1FFF78FFB97A13048FEF7B5FC0028B8
:1018600056D014204B4908702DA000F063FFFA20D9
:10187000FFF7EAF901203349087064A000F05AFF2D
:10188000C820FFF7E1F9654890F9001064A0FFF760
:10189000B1FD654890F9001064A0FFF7ABFD654805
:1018A000017865A0FFF7E6FD6548017865A0FFF7C0
:1018B000A1FD6648017866A0FFF79CFD4A480168D3
:1018C00065A0FFF797FD4148016865A0FFF792FD0D
:1018D00065480078012804D164A166A0FFF7A3FD44
:1018E00006E06148007818B965A162A0FFF79BFD8A
:1018F00053480078062804D163A164A0FFF793FD44
:1019000003E065A161A0FFF78EFD1A2000F028FF1B
:1019100010BD0000302E302E302E3000FC00002094
:101920000D0D000041542B53415042523D332C3198
:101930002C22434F4E54595045222C22475052538B
:10194000220D00003F000020C900002041504252FB
:101950003D332C312C22434F4E5459504522000028
:101960004F4B000041542B53415042523D332C31D8
:101970002C202241504E222C220000002F0000205B
:10198000220D0A0041542B53415042523D312C311B
:101990000D0A0000BC0000202B53415042523A2057
:1019A000312C310041542B43495053544152543D42
:1019B00022544350222C2200770000208C0000206B
:1019C0004F4E4E454354204641494C00B400002040
:1019D00041542B4346554E3D312C310D0A00000039
:1019E0004C4F534544000000B80000204D452045B1
:1019F00052524F523A0000004F4E4E454354204F32
:101A00004B0000004C524541445900000D0A41541E
:101A10002B43495053454E440D0A000095000020C9
:101A200043352F64733000009400002043352F6449
:101A3000733200009600002043352F7662617400F7
:101A4000CA00002043352F5600000000C0000020CF
:101A500043352F530000000043352F4300000000A2
:101A600043352F4346000000BD00002073746172AF
:101A70007425000043352F656E67696E65000000B0
:101A800073746F70250000006F6E000043352F6E79
:101A900065757472616C00006F666600636F6D61DE
:101AA0006E64737461727400636F6D616E647374DD
:101AB0006F700000636F6D616E6455706461746572
:101AC0000000000070B5002100230F22C47804B389
:101AD000154C246804F4E064C4F5E064210AC1F103
:101AE0000403CA40447804FA03F184781440214383
:101AF00009010E4C0678A155047804F01F05012455
:101B0000AC4005786D11AD0005F1E025C5F8004148
:101B100009E0047804F01F050124AC40044D067868
:101B2000761145F8264070BD0CED00E000E400E0C1
:101B300080E100E010B5024600200C4B186820F050
:101B40000300104318600A4B1B6843F00403084C61
:101B50002360012901D130BF00E020BF044B1B6886
:101B600023F00403024C236010BD0000007000400D
:101B700010ED00E00EB500214FF4037000F076F890
:101B800001210D2000F072F84FF48060ADF80800DC
:101B900004208DF80B0002208DF80A0002A91C48D1
:101BA000FFF730FA0A210020FFF70CFA4FF48060AB
:101BB000009001208DF8060004208DF8040010200C
:101BC0008DF805006846FFF76DF84FF48070ADF8AA
:101BD000080004208DF80B0002208DF80A0002A9ED
:101BE0000B48FFF70FFA08210120FFF7EBF94FF43C
:101BF0008070009001208DF8060004208DF804000C
:101C000010208DF805006846FFF74CF80EBD000067
:101C1000000C014001460020034A506820F4404077
:101C200008435060704700000010024029B1064A86
:101C3000D2690243044BDA6104E0034AD269824369
:101C4000014BDA61704700000010024029B1064ADA
:101C500012690243044B1A6104E0034A1269824389
:101C6000014B1A61704700000010024029B1064A7A
:101C700092690243044B9A6104E0034A92698243E9
:101C8000014B9A61704700000010024010B586B009
:101C900000F066F84FF4803000F024F900F080F98D
:101CA0000446012C1ED1002000F010F9A00200F023
:101CB0003FF9002000F048F94FF4E011200400F053
:101CC00055F9012000F04CF900BF392000F0D8F898
:101CD0000028FAD0022000F057F900BF00F0EEF81B
:101CE0000828FBD101A800F061F801211C20FFF7B2
:101CF000BDFF4FF4BF70ADF8000010208DF8030059
:101D000002208DF8020069461248FFF77BF94FF474
:101D10008040ADF8000010208DF8030002208DF8FF
:101D2000020069460C48FFF76DF94FF40050ADF81A
:101D3000000010208DF8030002208DF80200694693
:101D40000648FFF75FF940210248FFF72FFA06B077
:101D500010BD000000080140000C014000100140CF
:101D60000F48006840F001000D49086008464068CF
:101D70000C4908400A494860084600680A4908407A
:101D8000074908600846006820F48020086008467B
:101D9000406820F4FE0048604FF41F0088607047E0
:101DA000001002400000FFF8FFFFF6FE30B50021F2
:101DB0000022002400232D4D6D6805F00C0121B197
:101DC000042905D0082923D105E0294D056022E02A
:101DD000274D05601FE0254D6D6805F47012234DF9
:101DE0006D6805F48034022505EB92421CB9214D43
:101DF000554305600BE01D4D6D6805F400351DB1C0
:101E00001C4D5543056002E0194D5543056002E045
:101E1000174D056000BF00BF144D6D6805F0F0015F
:101E20000909154D6B5C0568DD4045600F4D6D6817
:101E300005F4E061090A104D6B5C4568DD40856082
:101E40000A4D6D6805F46051C90A0B4D6B5C45681D
:101E5000DD40C560054D6D6805F44041890B074DB7
:101E60006B5CC568B5FBF3F5056130BD0010024041
:101E700000127A0000093D00D2000020E20000209C
:101E800010B501460022002300204A11012A02D188
:101E9000094C236806E0022A02D1074C236A01E0BC
:101EA000054C636A01F01F02012494401C400CB1F0
:101EB000012000E0002010BD0010024002484068F0
:101EC00000F00C00704700000010024001460020A6
:101ED000034A506820F0F00008435060704700004B
:101EE000001002401149096821F480310F4A116045
:101EF0001146096821F480211160B0F5803F03D0BC
:101F0000B0F5802F0ED106E00849096841F4803110
:101F1000064A116007E00549096841F4A021034A17
:101F2000116000E000BF00BF7047000000100240D9
:101F300001460020034A506820F4E06008435060E6
:101F4000704700000010024001460020034A50681C
:101F500020F4605040EAC100506070470010024019
:101F60000149086670470000000042420246002016
:101F7000044B586820F47C1042EA01031843014BDB
:101F8000586070470010024001460020034A506824
:101F900020F003000843506070470000001002402A
:101FA00038B5002000900024002500BF3120FFF745
:101FB00067FF05460098401C00900098B0F5A06FA0
:101FC00001D0002DF2D03120FFF75AFF08B10124D3
:101FD00000E00024204638BD10B5A2A000F0AAFB06
:101FE0004FF49670FEF730FE9F48007801287AD1B2
:101FF0009E480078012876D19D480078012872D14A
:102000000020994908709BA000F094FB9C48007840
:10201000012802D19B4800F08DFB994800780228E6
:1020200002D1994800F086FB98A000F083FB4FF4A2
:102030009670FEF709FE96A000F07CFB99A000F0D8
:1020400079FB9B4890F9000000280DDA99A000F078
:1020500071FB974991F900104842974901F086FABF
:10206000044600F067FB08E09349914890F90000AE
:1020700001F07CFA044600F05DFB90A000F05AFBF2
:102080008FA000F057FB914890F9000000280DDA6E
:1020900088A000F04FFB8D4991F900104842864915
:1020A00001F064FA044600F045FB08E082498748E5
:1020B00090F9000001F05AFA044600F03BFB7FA0C3
:1020C00000F038FB82A000F035FB7B4983480078A4
:1020D00001F04CFA044600F02DFB81A000F02AFB31
:1020E0001A2000F03DFB60480078022827D15F48A5
:1020F000007820BB5E480078012820D100205A4992
:1021000008705CA000F016FB5D480078012802D141
:102110005C4800F00FFB5A480078022802D15A4868
:1021200000F008FB59A000F005FB4FF49670FEF795
:102130008BFD6CA000F0FEFA1A2000F011FB4A485B
:102140000078032832D14948007800282ED1484829
:10215000007801282AD100204349087045A000F0EA
:10216000E9FA47480078012802D1464800F0E2FA2F
:1021700043480078022802D1434800F0DBFA43A02C
:1021800000F0D8FA4FF49670FEF75EFD5B480078D9
:1021900010B95BA000F0CEFA5F480078062802D0A4
:1021A0005EA000F0C7FA1A2000F0DAFA2E48007894
:1021B000042827D12D48007820BB2D48007801281D
:1021C00020D10020284908702AA000F0B3FA2C483A
:1021D0000078012802D12B4800F0ACFA284800789A
:1021E000022802D1284800F0A5FA28A000F0A2FA9F
:1021F0004FF49670FEF728FD50A000F09BFA1A20CD
:1022000000F0AEFA18480078052827D11748007862
:1022100020BB17480078012820D1002012490870FF
:1022200014A000F087FA16480078012802D115485A
:1022300000F080FA12480078022802D1124800F01B
:1022400079FA12A000F076FA4FF49670FEF7FCFCD3
:1022500042A000F06FFA1A2000F082FA01A000F00C
:1022600069FA10BD0D0D0000C0000020BD00002067
:10227000BF00002041542B434D47533D2200000036
:102280009C0000200700002014000020220D000008
:1022900048692C656E67696E652073746172742E6F
:1022A000000000000A20456E67696E653D00000071
:1022B000950000202D0000009C010020430000003C
:1022C0000A204F7574536964653D00009400002036
:1022D0000A20566F6C746167653D0000960000200F
:1022E000562E00000A48692C656E67696E65206E7F
:1022F0006F2073746172742E00000000C50000200E
:102300000A2048692C2068616E64206272616B65E6
:10231000206572726F722E00CA0000200A20486980
:102320002C207669727475616C206E6575747261AB
:102330006C206572726F722E000000000A48692CD2
:102340004C6F7720766F6C7461676520666F7220C2
:1023500072756E6E696E672E000000000A53746F0E
:10236000705F68656174696E672E000010B500F0DB
:1023700001F810BD0CB500200190009033480068B2
:1023800040F480303149086000BF3048006800F4F4
:10239000003000900198401C0190009818B90198F5
:1023A000B0F5A06FF1D12948006800F4003010B1F9
:1023B0000120009001E0002000900098012843D106
:1023C0002348006840F01000214908600846006872
:1023D00020F0030008600846006840F00200086032
:1023E0001A484068194948600846406848600846ED
:1023F000406840F4806048600846406820F47C10E3
:1024000048600846406840F4E810486008460068A4
:1024100040F08070086000BF0C48006800F0007059
:102420000028F9D00948406820F0030007494860B7
:102430000846406840F00200486000BF034840681A
:1024400000F00C000828F9D10CBD0000001002407B
:102450000020024010B51348006840F00100114907
:10246000086008464068104908400E494860084620
:1024700000680E4908400B4908600846006820F4CF
:10248000802008600846406820F4FE0048604FF451
:102490001F008860FFF76AFF4FF000600449086082
:1024A00010BD0000001002400000FFF8FFFFF6FE24
:1024B00008ED00E010B50121114800F074F8F0B10A
:1024C00001210F4800F060F80E48007801280BD178
:1024D0000D48007840B90D480078012804D10C4817
:1024E0000078401C0A49087007480078012801D18B
:1024F0000849087008480078401C0749087010BD5A
:1025000000080040C4000020BD0000203F00002063
:10251000C3000020C7000020BC0000201FB501211F
:102520000420FFF783FB01A800F0AAF80020ADF813
:1025300006004FF4E150ADF8040042F21070ADF81F
:10254000080001A90F4800F049F8012211460D4882
:1025500000F03AF801210B4800F019F81E208DF820
:10256000000000208DF8010001208DF802008DF898
:1025700003006846FFF7A6FA0121024800F007F8B9
:102580001FBD000000080040CA430282704721B10D
:10259000028842F00102028004E002884FF6FE73D6
:1025A0001A400280704730B5024600200023002404
:1025B000158A05EA0103958905EA010413B10CB1F6
:1025C000012000E0002030BD1AB183890B438381D4
:1025D00002E083898B4383817047000000220288D8
:1025E0001D4B98420ED01D4B98420BD0B0F1804F3E
:1025F00008D01B4B984205D01A4B984202D01A4B78
:10260000984204D14FF68F731A404B881A43174BE8
:10261000984207D0164B984204D04FF6FF431A4019
:10262000CB881A4302808B8883850B8803850A4BED
:1026300098420BD0094B984208D00E4B984205D0D7
:102640000D4B984202D00D4B984201D10B7A038674
:102650000123838270470000002C014000340140B8
:102660000004004000080040000C00400010004042
:102670000014004000400140004401400048014077
:102680004FF6FF71818000210180C180418001727D
:102690007047000010B51F48008800F02000002897
:1026A00037D01C4800F016F91B490870084600781E
:1026B0001A491B4A1278885419480078401C184956
:1026C0000870154800780D2806D0084600784F2875
:1026D00005DD00F0E3FA02E00120124908700E481F
:1026E000007828B90D210E480078401E0B4A11547D
:1026F0000948007825280CD10D210848084A12788D
:10270000815401200749087005480078401C04499D
:10271000087010BD0038014006000020FC000020B9
:1027200005000020000000200148008870470000DC
:102730000048004010B504460BE014F8011B0748A0
:1027400000F0CDF800BF4021044800F025F8002833
:10275000F9D020780028F0D110BD000000380140E9
:1027600010B504462146054800F0B9F800BF4021E5
:10277000024800F011F80028F9D010BD00380140DF
:1027800021B1828942F40052828104E082894DF6AF
:10279000FF731A408281704702460020B1F5007F26
:1027A00000D100BF13880B400BB1012000E00020D6
:1027B0007047F0B50346002400260025002040F6AF
:1027C0006A17B94200D100BF1846C1F3421401F0A4
:1027D0001F06012707FA06F5012C01D10C3004E091
:1027E000022C01D1103000E014301AB107682F43D9
:1027F000076002E00768AF430760F0BD2DE9F047CE
:1028000086B005460E460024A24600BFA14600271A
:10281000B08900B100BF2F462C8A4CF6FF700440EF
:10282000F08804432C82AC894EF6F3100440B08843
:1028300031890843718908430443AC81AC8A4FF65F
:10284000FF400440B0890443AC8201A8FFF7AEFA10
:102850001F48874202D1DDF810A001E0DDF80CA08E
:10286000A88900F4004040B10AEBCA0000EB0A104E
:1028700031684900B0FBF1F807E00AEBCA0000EB51
:102880000A1031688900B0FBF1F86420B8FBF0F061
:1028900004012009642101FB1089A88900F400408B
:1028A00040B1322000EBC900B0FBF1F000F00700AE
:1028B000044308E0322000EB09106421B0FBF1F082
:1028C00000F00F0004432C8106B0BDE8F087000043
:1028D0000038014001468888C0F308007047C1F302
:1028E000080282807047000000B585B00020DD49F5
:1028F00008700221DC48FDF72FFF01287ED102215C
:10290000D948FDF735FE00208DF80A0001908DF8BA
:1029100013008DF808008DF8090000908DF80B0069
:1029200000218DF80C108DF80D108DF80E108DF81B
:102930000F108DF810108DF811108DF812106A46D6
:10294000C948FEF72CF80098B0F5847F61D19DF856
:102950000F0041009DF8100001EBE010C349088012
:102960009DF80C0081019DF80D0001EBA000C0490D
:1029700008809DF80B00BF490870BD480088B0F57D
:10298000FA7F0FDDB948008860B90846007813283F
:1029900008D1B948007828B9B848007810B90120A2
:1029A000B5490870B3480078102819DCB34800789E
:1029B000B0B9B1480078052809D1B148007801289C
:1029C00005D1B048007810B90620AB490870AA4874
:1029D0000078052804DA0020A7490870FEF7CAFA33
:1029E000A3480088B0F5FA7F13DDA04800880028CE
:1029F0000FDDA048007823280BD100E02FE19E488E
:102A00000078062805D19D48007810B900209A4921
:102A1000087040F24511009888420DD19DF80E00D3
:102A20002838994991F90010884205D09DF80E0088
:102A3000283840B2944908700098B0F55C7F1ED1E8
:102A40009DF80C00012803D09DF80C00032807D145
:102A500001208B4908708D480078401C8B49087014
:102A60009DF80C0018B19DF80C00022807D1002039
:102A70008349087085480078401C844908707F4865
:102A8000007850B97C480078012806D17C4800784D
:102A9000012802D10220784908707848007878B976
:102AA0007548007805280BDA73480078022807DBA0
:102AB0007348007820B900206F490870FEF75AFA71
:102AC00040F215110098884251D19DF80B0004285E
:102AD00007D09DF80B000C2803D09DF80B000228AE
:102AE00016D10120674908706448007880B96248AF
:102AF000007805280CDA60480078032808DB0846CF
:102B00000078012804D100205B490870FEF732FAF2
:102B10009DF80B0010B900205A49087057480078FA
:102B200028BB55480078022821D155480078012853
:102B30001DD154480078D0B903204F4908701021A6
:102B40005348FEF735FB6420FEF77EF80421504819
:102B5000FEF72EFB6420FEF777F802214C48FEF7C3
:102B600027FB6420FEF770F80420434908700098A2
:102B7000B0F50C7F26D19DF80D00402803D09DF8BC
:102B80000D0050280FD13D48007860B93A480078D0
:102B9000042808D13A480078012804D10520364994
:102BA0000870FEF7E7F99DF80D0058B93348007832
:102BB00040B931480078052804D100202E4908701A
:102BC000FEF7D8F940F245420099914213D19DF8A1
:102BD0000C0000EBD071491028392E4A92F90020E0
:102BE000914208D09DF80C0000EBD07149102839B3
:102BF00049B2284A11700098B0F5B07F15D19DF800
:102C00000B00012811D19DF80C0010280DD19DF862
:102C10000D00752809D19DF80E00E82805D1174848
:102C20000078012801D11C4908700098B0F5B07FE8
:102C300015D19DF80B00012811D19DF80C0020281A
:102C40000DD19DF80D00752809D19DF80E00E828DA
:102C500005D10A480078012801D1FEF78BF905B0AB
:102C600000BD0000C300002000640040CC00002034
:102C7000CE000020D0000020CA000020BD000020AF
:102C8000C5000020C600002095000020C1000020E3
:102C90000008014094000020C800002000200A49DC
:102CA000087009E000200949074A1278885406484C
:102CB0000078401C04490870034800785028F1DB74
:102CC000002001490870704705000020FC0000202A
:102CD00010B500201F49087000211F48FFF757FC5E
:102CE0004FF400511D48FEF763FA40211C48FEF7DF
:102CF0005FFAFEF73FFF02210120FEF71BFF4FF4B2
:102D0000A060FDF7B7FFFDF7BBFFFEF7BFFF4FF475
:102D100000511248FEF74AFA40211148FEF746FAE0
:102D200000F024F800F0D0FBFDF7CCFBFFF7F6FB3A
:102D30000423012200210B48FDF752FB0121094821
:102D4000FDF7E5FA01210748FDF7ABFB37200649FF
:102D5000087010BDC30000200008004000100140B2
:102D60000008014000240140BC00002000B589B0EB
:102D700001210846FEF77AFF01210820FEF776FFC1
:102D800001214806FEF752FF4FF48070ADF8200095
:102D900048208DF8230003208DF8220008A945481B
:102DA000FEF730F94FF40070ADF8200018208DF8D0
:102DB000230003208DF8220008A93E48FEF722F9DF
:102DC00001214FF4EA10FEF7A9F93B48FDF724FC76
:102DD00005A8FDF78DFE00208DF81A008DF81B0068
:102DE00001208DF81C008DF81D0000208DF81E00BC
:102DF0008DF81F008DF8160003208DF817000B20AA
:102E00008DF8180004208DF819003C20ADF814004E
:102E100005A92948FDF739FD00208DF80E00012095
:102E20008DF80F0000208DF810004FF4DC40ADF855
:102E3000040042F2A020ADF806004FF43050ADF887
:102E4000080046F2A000ADF80A000020ADF80C0022
:102E500001208DF8110001A8FDF7FAFB01208DF883
:102E60000E0042F6A000ADF8040048F6A000ADF850
:102E700006004FF40450ADF808004FF48C40ADF854
:102E80000A0001A8FDF7E4FB012202210A48FDF730
:102E9000F3FC14208DF8000000208DF801008DF85F
:102EA000020001208DF803006846FEF70BFE09B012
:102EB00000BD0000000C01400064004086B0FEF739
:102EC000E5FE4FF48041FE48FEF770F9FFF726FB60
:102ED00000F0FAFAFFF74AFFF4E2FA4800783C28DB
:102EE0000CD1F9A0FFF726FC4FF4AF70FDF7ACFE54
:102EF000F6A0FFF71FFC0020F2490870F7480078A1
:102F0000012810D1EF4800780F280CD1EEA0FFF770
:102F100011FC4FF4AF70FDF797FEECA0FFF70AFC31
:102F20000020E8490870EE480078142801D1FFF726
:102F3000CFFEEA480078012805D1EA480078012848
:102F400001D1FEF717F8E8480078012818D132209F
:102F5000FDF77AFE00200321CDE90201CDE904103E
:102F60000221AE230622CDE9001008214FF414708F
:102F7000FDF78EFD3220FDF767FE0020DA4908706C
:102F8000D648007801281BD1D8480078012817D1ED
:102F90004FF4FA70FDF758FE002001218022102323
:102FA000CDE904100090CDE90232019003460246BB
:102FB000072140F20530FDF76BFD0020CB4908707A
:102FC000CBA1CD48FDF700F9002868D00020CA4900
:102FD000087048708870C87008714871BAA0FFF70F
:102FE000A9FB4FF4FA70FDF72FFEC4A0FFF7A2FB78
:102FF000FDF7A2FEB948007801280DD1C848007835
:10300000012809D1B0A0FFF795FB4FF4AF70FDF791
:103010001BFEC4A0FFF78EFBB048007868B9C0481B
:103020000078022809D1A8A0FFF784FB4FF4AF7005
:10303000FDF70AFEC4A0FFF77DFBA848007868B939
:10304000B7480078032809D19FA0FFF773FB4FF41E
:10305000AF70FDF7F9FDC5A0FFF76CFB9F48007846
:1030600068B9AF480078042809D197A0FFF762FB40
:103070004FF4AF70FDF7E8FDC5A0FFF75BFB40F232
:10308000DC50FDF7E1FD90A0FFF754FB9620FDF723
:10309000DBFDC8A0FFF74EFB0020C8490870C8A19F
:1030A0009548FDF791F8002829D000209249087032
:1030B00048708870C87008714871FDF75BFF8748D9
:1030C000007860B996480078052808D17EA0FFF7FF
:1030D00031FB9620FDF7B8FDBBA0FFF72BFB4FF4AB
:1030E0007A70FDF7B1FD78A0FFF724FB9620FDF77D
:1030F000ABFDB0A0FFF71EFB0020B0490870BB4835
:10310000007801287ED1002075490870B749087001
:10311000FEF744FAB6A1B848FDF756F8002830D0BB
:10312000B649B548FDF750F8F8B1C820FDF78CFD59
:1031300065A0FFF7FFFA9620FDF786FDB0A0FFF728
:10314000F9FA4FF4FA70FDF77FFD5FA0FFF7F2FA8E
:103150009620FDF779FDACA0FFF7ECFA0120974926
:1031600008700020B14908700BE057A0FFF7E2FAA1
:103170009620FDF769FD8FA0FFF7DCFA00208F494C
:103180000870ABA19C48FDF71FF870B18B48007820
:1031900001280AD19848007A5749A44A12788854DD
:1031A000A2480078401CA1490870A3A19248FDF7ED
:1031B0000BF820B9A3A19048FDF706F870B12D20B7
:1031C0004049087040A0FFF7B5FA9620FDF73CFD96
:1031D0009FA0FFF7AFFAA4A0FFF7ACFAA8A186481A
:1031E000FCF7F2FF00B32C218348FCF7FFFF824974
:1031F000401A401C085CA44908704FF47A70FDF72F
:1032000023FD00E05EE130A0FFF794FA4FF47A70FE
:10321000FDF71AFD9DA0FFF78DFA9B480078FFF798
:103220009FFA9DA0FFF786FA9CA17348FCF7CCFF9C
:10323000B8B172497048FCF7C7FF20B999496E4888
:10324000FCF7C2FF18B102209749087009E01EA0E0
:10325000FFF770FA4FF4FA70FDF7F6FC82A0FFF763
:1032600069FA92496448FCF7AFFF98B18E4800783C
:1032700080B1FDF761FDFEF7AFFE00208A490870BE
:1032800011A0FFF757FA4FF4FA70FDF7DDFC76A0B6
:10329000FFF750FA86495848FCF796FF70B182480C
:1032A000007858B1FDF766FEFEF796FE00207E49D5
:1032B000087005A0FFF73EFA9620FBE000E1000051
:1032C000000C0140BC0000200D0D000041542B53A8
:1032D000415042523D322C310D0D0000BD00002006
:1032E000C3000020C6000020C7000020C800002046
:1032F0003132333400000000A80100200D41542B6E
:10330000435245433D342C22433A5C557365725C0D
:10331000322E616D72222C302C39300D00000000ED
:10332000C00000200D41542B435245433D342C2214
:10333000433A5C557365725C332E616D72222C309A
:103340002C39300D000000000D41542B43524543F1
:103350003D342C22433A5C557365725C342E616DAA
:1033600072222C302C39300D000000000D41542BFE
:10337000435245433D342C22433A5C557365725C9D
:10338000352E616D72222C302C39300D000000007A
:103390000D41542B435245433D342C22433A5C5556
:1033A0007365725C362E616D72222C302C39300DB3
:1033B000000000000D4154480D000000BE00002038
:1033C00035363738000000000D41542B4352454339
:1033D0003D342C22433A5C557365725C372E616D27
:1033E00072222C302C39300D00000000000000202B
:1033F0004C49503A00000000FC000020070000206B
:103400000D4154410D0000000D41542B43524543E2
:103410003D342C22433A5C557365725C312E616DEC
:1034200072222C302C39300D00000000D100002019
:103430002B44544D463A0000534D5320526561646D
:10344000790000004E4F204341525249455200003E
:103450000D2041542B434C49503D313B2B444445B6
:10346000543D310D000000000D41542B434D4744A5
:10347000413D2244454C20414C4C220D00000000AF
:1034800022534D2200000000930000200D41542BD8
:10349000434D47523D0000002C300D002B434D475B
:1034A000523A0000140000209C000020210000205F
:1034B00028000020FDF7C8FBAFF25400FFF73AF9EF
:1034C000FFF7ECFB09E5000000B587B0012144F2ED
:1034D0000400FEF7CBFB25208DF8180000208DF8A6
:1034E000190001208DF81A008DF81B0006A8FEF7C0
:1034F000E9FA4FF40070ADF8140018208DF81700A9
:1035000003208DF8160005A91648FDF77BFD4FF442
:103510008060ADF8140004208DF8170005A911484B
:10352000FDF770FD4FF4165001900020ADF8080033
:10353000ADF80A00ADF80C00ADF810000C20ADF8A5
:103540000E0001A90848FFF759F901210648FFF7C5
:1035500017F9012240F225510348FFF72AF907B075
:1035600000BD0000000801400038014002460B3158
:103570000023481E0146037000BF0A20B2FBF0F38F
:1035800000FB132030304B1E194618700A20B2FB86
:10359000F0F2002AF1D10846704700004FF47F0C8A
:1035A0001CEAD0121EBF1CEAD11392EA0C0F93EA58
:1035B0000C0F00F0858090EA010F48BF42F4807242
:1035C00040F4000C41F400002CF07F4120F07F40DB
:1035D00000B58142A2EB03020FF2081CACEB504E87
:1035E000C0F100009EF800E04FEA4E0E00FB0EFC1A
:1035F00038BF49004FEA2C1C02F5FA020CFB0EF30F
:103600004FEACE1E4FEA112C4FEAC1210EEB635E4A
:1036100042EB22420EFB0CFC4FEA1C5300FB031151
:103620004FEA112C4FEA01310EFB0CFC4FEADC4C47
:1036300000FB0C11C14228BF09184CEB03335DF8A5
:1036400004EB10EB410143EBC250B2F57C0F38BFE5
:10365000704729D512F0F00F1CBF00F1C04000F0F8
:1036600000407047008182838485868788898B8C9F
:103670008D8E8F919293959697999A9C9D9FA0A2DB
:10368000A3A5A7A8AAACAEB0B2B3B5B7B9BCBEC02B
:10369000C2C5C7C9CCCED1D4D7D9DCDFE2E6E9ECCC
:1036A000F0F3F7FAFE0000004FEA400C0CF1807CCA
:1036B000BCF17E4F28BF7047B0F1C04000F0A9B800
:1036C00090EA010F0CEAD11348BF42F480726245C0
:1036D00038BF634507D213F47F0F16D080EA01008C
:1036E00000F00040704710B500F04DF8097EFC3E38
:1036F00000F005B880EA010000F00040704780EA61
:10370000010000F0004000F084B812F47F0F04BF05
:103710000248704780EA010000F07BB80000C07FDB
:10372000C10DD1F19E0206DB4FEA002343F00043B6
:1037300023FA02F07047004207D54FEA4001B1F189
:10374000FE4F02D24FF00000704710B500F01BF89A
:1037500049922480002070476FEA200070470000E3
:10376000B0FA80F310FA03F2C3F19D030AD0D90531
:1037700001EB1220530638BF704700F1010008BF6B
:1037800020F0010070470EF1020E2EF0030E5EF8DD
:10379000044B244204D44FEA4102B2F17F4F11D8C6
:1037A0004FEA4003B3F17F4F0CD80ED14FEAD07CE3
:1037B000B2F17F4F0CEB4C0C0CF1020C08BF4CEB40
:1037C000D17C04E04FF0080C01E04FEAD17C0CEB17
:1037D0004C0324FA03F404F00704B4F1040C06D2F9
:1037E0000EEB840CBDE810404CF0010C6047DFE8A4
:1037F0000CF0070802024FF00040A0F5800010BD59
:103800000846420018BFD2F1807288BF00F0004025
:1038100010BDFF2141EAD050C00570473C38000878
:1038200000000020E80000002801000824390008FA
:10383000E8000020300700004401000800000000FC
:103840000000002B373978787878787878787800A5
:103850002B3739787878787878787878007878782D
:103860007878780078787878787800696E746572FE
:103870006E65742E6D74732E72750000787878788A
:103880007878780000007878787878787800000088
:1038900000000000004D51497364700000000000FA
:1038A00000000000787878000000000000000000B0
:1038B0000000006661726D65722E636C6F75646DD9
:1038C0007174742E636F6D003132343738008400A8
:1038D000EC0000753333BB41000000000000000025
:1038E00000000000000000000000000000000000D8
:1038F00000000000000000000000000100000000C7
:1039000001000000000000000000000000000000B6
:10391000000001020304010203040607080902046F
:043920000608000095
:04000005080000ED02
:00000001FF
